{
  "contractName": "SimpleStorage",
  "abi": [
    {
      "inputs": [],
      "stateMutability": "payable",
      "type": "constructor",
      "payable": true
    },
    {
      "inputs": [],
      "name": "owner",
      "outputs": [
        {
          "internalType": "address payable",
          "name": "",
          "type": "address"
        }
      ],
      "stateMutability": "view",
      "type": "function",
      "constant": true
    },
    {
      "stateMutability": "payable",
      "type": "receive",
      "payable": true
    },
    {
      "inputs": [
        {
          "internalType": "address",
          "name": "_address",
          "type": "address"
        }
      ],
      "name": "getBalance",
      "outputs": [
        {
          "internalType": "uint256",
          "name": "",
          "type": "uint256"
        }
      ],
      "stateMutability": "view",
      "type": "function",
      "constant": true
    },
    {
      "inputs": [
        {
          "internalType": "address",
          "name": "_address",
          "type": "address"
        }
      ],
      "name": "withdraw",
      "outputs": [],
      "stateMutability": "nonpayable",
      "type": "function"
    },
    {
      "inputs": [
        {
          "internalType": "address payable",
          "name": "_to",
          "type": "address"
        },
        {
          "internalType": "uint256",
          "name": "_amount",
          "type": "uint256"
        }
      ],
      "name": "transfer",
      "outputs": [],
      "stateMutability": "nonpayable",
      "type": "function"
    }
  ],
  "bytecode": "0x6080604052336000806101000a81548173ffffffffffffffffffffffffffffffffffffffff021916908373ffffffffffffffffffffffffffffffffffffffff16021790555061057e806100536000396000f3fe6080604052600436106100435760003560e01c806351cff8d91461004f5780638da5cb5b14610078578063a9059cbb146100a3578063f8b2cb4f146100cc5761004a565b3661004a57005b600080fd5b34801561005b57600080fd5b5061007660048036038101906100719190610350565b610109565b005b34801561008457600080fd5b5061008d6101f7565b60405161009a919061039e565b60405180910390f35b3480156100af57600080fd5b506100ca60048036038101906100c5919061041b565b61021b565b005b3480156100d857600080fd5b506100f360048036038101906100ee9190610350565b6102cc565b604051610100919061046a565b60405180910390f35b60008173ffffffffffffffffffffffffffffffffffffffff1631905060008060009054906101000a900473ffffffffffffffffffffffffffffffffffffffff1673ffffffffffffffffffffffffffffffffffffffff168260405161016c906104b6565b60006040518083038185875af1925050503d80600081146101a9576040519150601f19603f3d011682016040523d82523d6000602084013e6101ae565b606091505b50509050806101f2576040517f08c379a00000000000000000000000000000000000000000000000000000000081526004016101e990610528565b60405180910390fd5b505050565b60008054906101000a900473ffffffffffffffffffffffffffffffffffffffff1681565b60008273ffffffffffffffffffffffffffffffffffffffff1682604051610241906104b6565b60006040518083038185875af1925050503d806000811461027e576040519150601f19603f3d011682016040523d82523d6000602084013e610283565b606091505b50509050806102c7576040517f08c379a00000000000000000000000000000000000000000000000000000000081526004016102be90610528565b60405180910390fd5b505050565b60008173ffffffffffffffffffffffffffffffffffffffff16319050919050565b600080fd5b600073ffffffffffffffffffffffffffffffffffffffff82169050919050565b600061031d826102f2565b9050919050565b61032d81610312565b811461033857600080fd5b50565b60008135905061034a81610324565b92915050565b600060208284031215610366576103656102ed565b5b60006103748482850161033b565b91505092915050565b6000610388826102f2565b9050919050565b6103988161037d565b82525050565b60006020820190506103b3600083018461038f565b92915050565b6103c28161037d565b81146103cd57600080fd5b50565b6000813590506103df816103b9565b92915050565b6000819050919050565b6103f8816103e5565b811461040357600080fd5b50565b600081359050610415816103ef565b92915050565b60008060408385031215610432576104316102ed565b5b6000610440858286016103d0565b925050602061045185828601610406565b9150509250929050565b610464816103e5565b82525050565b600060208201905061047f600083018461045b565b92915050565b600081905092915050565b50565b60006104a0600083610485565b91506104ab82610490565b600082019050919050565b60006104c182610493565b9150819050919050565b600082825260208201905092915050565b7f4661696c656420746f2073656e64204574686572000000000000000000000000600082015250565b60006105126014836104cb565b915061051d826104dc565b602082019050919050565b6000602082019050818103600083015261054181610505565b905091905056fea264697066735822122054e7021052d1838ff0d40cb30537b9291069c9c89670c8219dec0a79b691417464736f6c634300080d0033",
  "immutableReferences": {},
  "source": "// SPDX-License-Identifier: MIT\npragma solidity ^0.8.10;\n\ncontract SimpleStorage {\n    // Payable address can receive Ether\n    address payable public owner;\n\n    // Payable constructor can receive Ether\n    constructor() payable {\n        owner = payable(msg.sender);\n    }\n    receive() external payable {}\n    function getBalance(address _address) public view returns (uint) {\n        return _address.balance;\n    }\n    function withdraw(address _address) public {\n        // get the amount of Ether stored in this contract\n        uint amount = _address.balance;\n\n        // send all Ether to owner\n        // Owner can receive Ether since the address of owner is payable\n        (bool success, ) = owner.call{value: amount}(\"\");\n        require(success, \"Failed to send Ether\");\n    }\n\n    // Function to transfer Ether from this contract to address from input\n    function transfer(address payable _to, uint _amount) public {\n        // Note that \"to\" is declared as payable\n        (bool success, ) = _to.call{value: _amount}(\"\");\n        require(success, \"Failed to send Ether\");\n    }\n}",
  "sourcePath": "C:\\Users\\Admin\\auction\\contracts\\SimpleStorage.sol",
  "compiler": {
    "name": "solc",
    "version": "0.8.13+commit.abaa5c0e.Emscripten.clang"
  },
  "schemaVersion": "3.4.6",
  "updatedAt": "2022-04-19T05:03:51.330Z",
  "networkType": "ethereum",
  "devdoc": {
    "kind": "dev",
    "methods": {},
    "version": 1
  },
  "userdoc": {
    "kind": "user",
    "methods": {},
    "version": 1
  }
}